:020000040800F2
:10000000F804002045010008A11400083913000875
:100010009D14000889100008771A000800000000ED
:100020000000000000000000000000002D16000885
:10003000C710000800000000151500081917000877
:100040005F0100085F0100085F0100085F01000810
:100050005F0100085F010008C91000085F01000887
:100060005F0100085F0100085F0100085F010008F0
:100070005F0100085F0100085F0100085F010008E0
:100080005F0100085F0100085F0100085F010008D0
:100090005F0100085F0100085F0100085F010008C0
:1000A0005F0100085F0100085F0100085F010008B0
:1000B0005F0100085F0100085F0100085F010008A0
:1000C0005F0100085F0100085F0100085F01000890
:1000D0005F0100085F010008DD17000849180008EB
:1000E0005F0100085F0100085F0100085F01000870
:1000F0005F0100085F0100085F0100085F01000860
:100100005F0100085F0100085F0100085F0100084F
:100110005F0100085F0100085F0100085F0100083F
:100120005F0100085F0100085F0100085F0100082F
:10013000DFF80CD000F08CFB00480047E9280008ED
:10014000F80400200648804706480047FEE7FEE71F
:10015000FEE7FEE7FEE7FEE7FEE7FEE7FEE7FEE777
:100160007D17000831010008D2B201E000F8012B30
:10017000491EFBD270470022F6E710B513460A4627
:1001800004461946FFF7F0FF204610BD2DE9FE4F4B
:10019000804681EA0300C00F0C46009021F0004128
:1001A00023F00045B8EB0200A94105D240462146A4
:1001B00090461C460B46024623F00040104347D0B1
:1001C000270DC7F30A00C3F30A510290401A0190A9
:1001D00040286BDAC3F3130040F4801B009892466A
:1001E00020B10023D2EB030A63EB0B0B01985946B5
:1001F000C0F14002504600F036FA06460D46504621
:100200005946019A00F04EFA10EB080061410024B3
:1002100087EA115284EAE7731A4340D0009A62B326
:10022000019A012A4FEA075215DC001B61EB02011B
:100230004FF0004202EA0752CDE90042001C41F5AE
:10024000801132462B4600F085FA03B0BDE8F08FEE
:1002500040462146F9E7001B61EB0201001C41F515
:10026000801300185B412018A2F5001747EB03012B
:1002700040EAD570B6196D4111E06D084FEA3606B7
:1002800045EAC0754FEA0752001B61EB0201001CF2
:1002900041F5801149084FEA3000001951413246BA
:1002A0002B4603B0BDE8F04F00F045BA009801229C
:1002B00040000023D0EB020263EBE073009821467C
:1002C0004FEAE074B8EB000061EB0401E9E783F06A
:1002D00000435BE781F0004158E72DE9FE4F81EADA
:1002E000030404F0004421F0004100944FF0000B9F
:1002F00023F0004350EA01045ED052EA03045BD0CD
:10030000C3F30A54C1F30A552C44A4F2F334019404
:10031000A0FB0254C1F3130141F48011C3F3130392
:1003200043F4801301FB024400FB034E840A970A46
:1003300044EA815447EA8357A4FB076802958D0A73
:1003400005FB07854FEA932C04FB0C542705029DFF
:100350004FEA065847EA1637B5EB08056EEB070C6F
:10036000870E920E47EA811742EA8312A7FB020129
:10037000B6EB0B0164EB00042B0D43EA0C335E1863
:1003800044EB1C50DA465146E7FB0201C5F3130467
:100390004FEA0B3343EA14534FEA0432019C43EA19
:1003A0000603A4F10C040294009CCDE900B400F013
:1003B000D1F903B0BDE8F08F00200146F9E72DE93F
:1003C000F04D81EA030404F0004B21F0004514468F
:1003D0004FF0000A23F0004150EA050220D054EA11
:1003E00001021DD0C5F30A570246C5F31303C1F33A
:1003F0001300C1F30A5640F4801543F48013A7EBB1
:100400000608101BD64608F2FD3873EB050002D330
:1004100008F1010801E092185B41B8F1000F03DA1E
:1004200000200146BDE8F08D00204FF48011064603
:1004300084460EE0171B73EB050705D3121B63EB15
:10044000050306434CEA010C49084FEA30009218B4
:100450005B4150EA0107EDD152EA030012D082EA73
:10046000040083EA0501084305D0101BAB4106D206
:100470000122002306E000224FF0004302E06FF06B
:10048000010253101AEB06004CEB085110EB0A0066
:1004900041EB0B01BDE8F04D00F04DB90EB5C10FB9
:1004A00080EAE0700844CA07002140F233438DE837
:1004B0000E000A460B4600F04DF903B000BD0EB524
:1004C00040F2334102910021CDE900110A460B466A
:1004D00000F040F903B000BD0EB540F23342029285
:1004E0000022CDE90022134600F034F903B000BD2C
:1004F00020F00040C10DC0F3160040F400007F2939
:1005000001DA00207047962903DCC1F19601C8404A
:100510007047963988407047C1F30A5210B5C1F34D
:10052000130140F2FF3341F480119A4201DA0020B6
:1005300010BD40F233439A42A2F2334203DC5242EE
:1005400000F0A0F810BD904010BD00F0004230F067
:1005500000400AD0C10D01F56071C0F3160042EAF7
:100560000151C208400711437047002001467047FF
:1005700030B5041E71F1000404DB4FF0004440422A
:1005800064EB0101141E73F1000405DB1C464FF0FF
:100590000043524263EB04038B4208BF824230BDEA
:1005A00001F0004330B421F0004150EA010206D0CE
:1005B0000A0DA2F56072C1F31301002A02DC30BCFF
:1005C00000207047440F44EAC104C100E01830BC69
:1005D00000EBC25000F078B830B50B460146002061
:1005E0002022012409E021FA02F59D4205D303FAF5
:1005F00002F5491B04FA02F52844151EA2F1010276
:10060000F1DC30BD2DE9F05F0546002092469B46A7
:1006100088460646814640241BE028464146474618
:10062000224600F02FF853465A46C01A914110D383
:1006300011461846224600F016F82D1A67EB0108FD
:100640004F4622460120002100F00DF817EB00096B
:100650004E41201EA4F10104DFDC484631462A4603
:100660004346BDE8F09F202A04DB203A00FA02F15D
:10067000002070479140C2F1200320FA03F3194390
:1006800090407047202A04DB203A21FA02F0002132
:10069000704721FA02F3D040C2F120029140084392
:1006A00019467047202A06DBCB17203A41FA02F0A0
:1006B00043EAE07306E041FA02F3D040C2F12002BF
:1006C00091400843194670470029A8BF7047401C55
:1006D000490008BF20F00100704710B4B0FA80FC58
:1006E00000FA0CF050EA010404BF10BC704749B195
:1006F000CCF1200421FA04F411FA0CF118BF012105
:1007000021430843A3EB0C01CB1D4FEA00614FEAE4
:10071000102042BF002010BC704700EBC3501044B3
:100720000029A4BF10BC7047401C490008BF20F03E
:10073000010010BC704710B5141E73F1000408DAF4
:10074000401C41F1000192185B411A4301D120F095
:10075000010010BD2DE9F04D92469B4611B1B1FA52
:1007600081F202E0B0FA80F220329046FFF77BFF80
:1007700004460F4640EA0A0041EA0B0153465A4636
:10078000084313D0114653EA010019D0C8F14002C2
:100790005046FFF777FF05460E46504659464246FB
:1007A000FFF761FF084305D0012004E020463946E9
:1007B000BDE8F08D0020054346EAE0762C43374340
:1007C0000A986305E40AA0EB08000022FD0A44EA47
:1007D00047540A3002D500200146E9E70105101907
:1007E0006941DDE9084500196941BDE8F04DA2E71E
:1007F000C1F30A52C1F3130140F2FF3341F48011F7
:100800009A4202DA00200146704740F233439A428E
:10081000A2F2334202DC5242FFF734BFFFF723BF9C
:1008200030B5041E71F1000404DB4FF00044404277
:1008300064EB0101141E73F1000405DB1C464FF04C
:100840000043524263EB0403994208BF904230BD1B
:10085000064C074D06E0E06840F0010394E807000D
:1008600098471034AC42F6D3FFF766FC442C0008DE
:10087000642C00082DE9F05F6948007838B903213D
:10088000684800F0CAF9012065490870C5E064486D
:1008900000780128FAD100206149087062480021DF
:1008A000016081808171072100F098F906215E487E
:1008B00000F0ECFB5D4908705B488079097888425C
:1008C0007DD1594840780021594A03C25848D0E99F
:1008D0000010000240EA11600902083AC2E9001063
:1008E0001046D0E9002050498978511840F10000A5
:1008F0004F4AC2E900101046D0E90010000240EA59
:1009000011600902C2E900101046D0E900204649F2
:10091000C978511840F10000454AC2E9001011465B
:1009200003C9000940EA0170090903C24048D0E93F
:1009300000211046FFF7D0FD804600223D4BFFF717
:10094000CCFC064600223C4BFFF739FD0446FFF77E
:1009500027FE374908613448C07800F00F00C117FE
:10096000334AC2E902011046D0E90210000240EA0F
:1009700011600902C2E902101046D0E902302A498A
:100980000979591840F10000C2E902101046D0E977
:100990000210000240EA11600902C2E9021010468A
:1009A000D0E9022020494979511840F10000204A3D
:1009B000C2E902101046D0E90221104600E029E009
:1009C000FFF78AFD064600221C4BFFF786FC044613
:1009D0000022194BFFF7F3FC80460022184BFFF76B
:1009E00076FC8246FFF7DCFD114948610869FFF794
:1009F000ACFD044622460B4612A001F03FF80C491C
:100A00004869FFF7A2FD044622460B4613A001F0F9
:100A100035F802E017A001F031F8BDE8F09F0000C2
:100A20004C0000204D000020500000205700002006
:100A3000C80000200000594000003041000069401B
:100A40000000494041485432315F446174652E488A
:100A5000756D3D252E31660D0A0000004148543267
:100A6000315F446174652E54656D3D252E31660DF0
:100A70000A000000D0A3D1E9B2BBCDA8B9FD0D0A90
:100A80000000000008B50121102000F055FD1420E1
:100A90008DF803003020ADF8000003208DF802002F
:100AA0006946044800F0A2FB3021024800F03DFCFA
:100AB00008BD00000010014010B52021044800F0DE
:100AC00020FC04460A2001F010FE204610BD000064
:100AD0000010014010B5012000F06EF8012000F078
:100AE0005DF8FFF7E9FF0446002000F057F82046C4
:100AF00010BD70B50025012000F05EF800240EE066
:100B0000012000F04BF8FFF7D7FF012802D1802029
:100B100020410543002000F041F8601CC4B2082CBD
:100B2000EEDB284670BD10B50446204600F044F8C0
:100B3000012000F033F8002000F030F810BD70B54F
:100B4000054600240DE08021214101EA050000F066
:100B500033F8012000F022F8002000F01FF8601C9C
:100B6000C4B2082CEFDB70BD10B5012000F024F8F2
:100B7000012000F013F8002000F01EF8002000F023
:100B80000DF810BD10B5002000F016F8012000F09F
:100B900005F8012000F010F810BD000010B5044663
:100BA00022461021034800F0C2FB0A2001F09DFDFF
:100BB00010BD00000010014010B50446224620215F
:100BC000034800F0B4FB0A2001F08FFD10BD0000C7
:100BD0000010014010B5FFF755FF10BD70B5044679
:100BE0000D46FFF7C1FF7120FFF7A9FFFFF772FF66
:100BF0000BE0FFF77EFF04F8010B1DB90120FFF7A2
:100C000092FF02E00020FFF78EFF281EA5F10101F0
:100C10008DB2EED1FFF7B6FF70BD70B504460D463C
:100C2000FFF7A2FF7020FFF78AFFFFF753FF05E0F1
:100C30002078FFF784FFFFF74DFF641C281EA5F105
:100C400001018DB2F4D1FFF79DFF70BD70B500BFFB
:100C5000012000F029F80028FAD100BF082000F098
:100C600023F80028FAD100F02CF8074A03C200222A
:100C7000064B054903C9FFF7A2FB044622460B4673
:100C800003A000F0FBFE70BD5800002000408F4024
:100C9000C6F8D1B950726573737572653A252E32F4
:100CA000664B50610D0A000070B50446F32000F059
:100CB000CBF8054605EA040008B1012070BD00200C
:100CC000FCE72DE9F047F92000F0BEF80446F820D3
:100CD00000F0BAF80546F72000F0B6F806463003F3
:100CE00040EA051040EA2419484601F05DFB07463A
:100CF000884638464146BDE8F087000008B5012126
:100D0000082000F019FC14208DF803000320ADF832
:100D100000008DF802006946034800F067FA0321DD
:100D2000014800F002FB08BD000C014010B5022193
:100D3000044800F0E6FA04460A2001F0D6FC2046FA
:100D400010BD0000000C014010B5012000F06EF84D
:100D5000012000F05DF8FFF7E9FF0446002000F0F5
:100D600057F8204610BD70B50025012000F05EF850
:100D700000240EE0012000F04BF8FFF7D7FF012818
:100D800002D1802020410543002000F041F8601C82
:100D9000C4B2082CEEDB284670BD10B504462046D0
:100DA00000F044F8012000F033F8002000F030F8A3
:100DB00010BD70B5054600240DE08021214101EAF7
:100DC000050000F033F8012000F022F8002000F0C8
:100DD0001FF8601CC4B2082CEFDB70BD10B50120F9
:100DE00000F024F8012000F013F8002000F01EF8B5
:100DF000002000F00DF810BD10B5002000F016F82E
:100E0000012000F005F8012000F010F810BD0000EE
:100E100010B5044622460121034800F088FA0A2052
:100E200001F063FC10BD0000000C014010B5044649
:100E300022460221034800F07AFA0A2001F055FC0C
:100E400010BD0000000C014070B50446FFF7C6FF5E
:100E5000EC20FFF7AEFFFFF777FF2046FFF7A9FF73
:100E6000FFF772FFFFF7BAFFED20FFF7A2FFFFF7D2
:100E70006BFFFFF778FF05460120FFF78EFFFFF7B6
:100E8000BBFF284670BD70B50446207840016178EC
:100E900040EA8100A1780843C5B22946F52000F058
:100EA00010F870BD70B5044660784001217840EAC2
:100EB0008100A1780843C5B22946F42000F001F86A
:100EC00070BD70B505460C46FFF788FFEC20FFF7B4
:100ED00070FFFFF739FF2846FFF76BFFFFF734FF7E
:100EE0002046FFF766FFFFF72FFFFFF785FF70BD76
:100EF00010B5FFF703FF00F001F810BD7CB58820A6
:100F0000FFF7A2FF04468920FFF79EFF054604EB8A
:100F100005205C49096808808A20FFF795FF044690
:100F20008B20FFF791FF054604EB052000B25549E1
:100F3000096848808C20FFF787FF04468D20FFF763
:100F400083FF054604EB052000B24E4909688880FE
:100F50008E20FFF779FF04468F20FFF775FF0546C7
:100F600004EB052047490968C8809020FFF76CFF13
:100F700004469120FFF768FF054604EB052000B208
:100F80004049096808819220FFF75EFF04469320DC
:100F9000FFF75AFF054604EB052000B239490968FE
:100FA00048819420FFF750FF04469520FFF74CFF3F
:100FB000054604EB052000B2324909688881962075
:100FC000FFF742FF04469720FFF73EFF054604EB7C
:100FD000052000B22B490968C8819820FFF734FF2B
:100FE00004469920FFF730FF054604EB052000B2C8
:100FF0002449096808829A20FFF726FF04469B20AF
:10100000FFF722FF054604EB052000B21D490968E1
:1010100048829C20FFF718FF04469D20FFF714FF2D
:10102000054604EB052000B21649096888829E2017
:10103000FFF70AFF04469F20FFF706FF054604EB73
:10104000052000B20F490968C882B621E020FFF7E9
:1010500038FF03208DF8040001208DF805000320DF
:101060008DF8060001A8FFF71DFF00208DF8000095
:1010700004208DF8010000208DF802006846FFF77B
:1010800002FF7CBD6800002000BFFEE730B50246CD
:10109000FF20002314E01578684000240BE000F0E6
:1010A000800525B1312585EA4005E8B201E0450615
:1010B000280E651CECB2082CF1DB521C5D1CEBB257
:1010C0008B42E8DB30BD704710B5012000F010F80E
:1010D00020B101200249087000F004F810BD0000A2
:1010E00041000020014908607047000014040140DD
:1010F000014600200022074B1B6803EA0102054B52
:1011000014331B680B4013B10AB1012000E000202A
:101110007047000000040140002123498279002A21
:101120003AD00A46126803689A430B461A600A1DB1
:10113000126803689A430B1D1A60027911440A6809
:1011400003681A430A60184A0832126803689A430F
:10115000154B08331A601A1D126803689A43124B24
:101160000C331A604279102A0ED11A1F12680368D4
:101170001A430D4B08331A601A1D126803681A438C
:10118000094B0C331A600DE00749427911440A6893
:1011900003681A430A6005E0027911440A6803688B
:1011A0009A430A60704700000004014030B50022F5
:1011B0008B071C0F0F2303FA04F20B4B8C1053F810
:1011C00024309343084C8D1044F8253023468C106E
:1011D00053F824308C07240F00FA04F42343024C04
:1011E0008D1044F8253030BD080001402DE9F04154
:1011F000024600250026002000230024002791F845
:1012000003C00CF00F0591F803C00CF0100CBCF1FA
:10121000000F03D091F802C04CEA050591F800C018
:10122000BCF1000F31D0146800202BE04FF0010C0E
:101230000CFA00F3B1F800C00CEA03069E4220D17C
:1012400083004FF00F0C0CFA03F7BC4305FA03FCC4
:101250004CEA040491F803C0BCF1280F06D14FF00A
:10126000010C0CFA00FCC2F814C00AE091F803C0AB
:10127000BCF1480F05D14FF0010C0CFA00FCC2F88C
:1012800010C0401C0828D1D31460B1F800C0BCF1D4
:10129000FF0F34DD546800202EE000F1080C4FF001
:1012A000010808FA0CF3B1F800C00CEA03069E42EC
:1012B00021D183004FF00F0C0CFA03F7BC4305FA61
:1012C00003FC4CEA040491F803C0BCF1280F05D1DB
:1012D00000F1080C08FA0CF8C2F8148091F803C069
:1012E000BCF1480F07D100F1080C4FF0010808FAD3
:1012F0000CF8C2F81080401C0828CED35460BDE81A
:10130000F0810246002093680B400BB1012000E001
:101310000020704702460020D3680B400BB101202B
:1013200000E00020704741617047016170470AB1D9
:10133000016100E04161704700BFFEE72DE9F04127
:10134000C0B006460C4600274FF00108FC2101A85A
:10135000FEF711FF0F48006800908DF800708DF8BF
:101360000180002005E0325CC11C0DF80120411C09
:10137000C8B2A042F7DB002505E01DF8050001F02A
:1013800093FB681CC5B2E01C8542F6DB40B0BDE8AB
:10139000F0810000402C000810B5044634B1012C47
:1013A00004D0102C02D0112C00D010BD04F001028A
:1013B0004FF480710748FFF7BAFFC4F300124FF4EF
:1013C00000610448FFF7B3FF642001F082F900BF19
:1013D000EBE700000008014010B5002240F2255163
:1013E000284800F0ADFA2620002817DB00F01F0285
:1013F00001219140244A430942F8231000BF00BF55
:1014000000BFBFF34F8F00BF00BF00BF00BF00BFD2
:1014100000BFBFF36F8F00BF00BF00BF00BF112030
:10142000FFF7BAFFC0201949087000204870032058
:1014300088701A20C87017200871C42048710621CE
:10144000124801F043FA642001F043F90020FFF74D
:10145000A3FF0FA000F012FB012240F22551094822
:1014600000F06EFA2620002809DB00F01F0201219F
:1014700091404209920002F1E022C2F8001100BF3F
:1014800010BD00000044004080E100E04200002068
:10149000C5E4D6C3CDEAB3C90D0A000000BFFEE71C
:1014A0007047000070B5002100230F22C47804B3F8
:1014B000154C246804F4E064C4F5E064210AC1F129
:1014C0000403CA40447804FA03F1847814402143A9
:1014D00009010E4C0678A155047804F01F0501247B
:1014E000AC4005786D11AD0005F1E025C5F800416F
:1014F00009E0047804F01F050124AC40044D06788F
:10150000761145F8264070BD0CED00E000E400E0E7
:1015100080E100E07047000029B1064AD269024329
:10152000044BDA6104E0034AD2698243014BDA6179
:10153000704700000010024029B1064A9269024338
:10154000044B9A6104E0034A92698243014B9A6119
:10155000704700000010024030B500210022002436
:1015600000232D4D6D6805F00C0121B1042905D033
:10157000082923D105E0294D056022E0274D0560AB
:101580001FE0254D6D6805F47012234D6D6805F45C
:101590008034022505EB92421CB9214D554305606C
:1015A0000BE01D4D6D6805F400351DB11C4D554314
:1015B000056002E0194D5543056002E0174D0560D6
:1015C00000BF00BF144D6D6805F0F0010909154D0D
:1015D0006B5C0568DD4045600F4D6D6805F4E061AA
:1015E000090A104D6B5C4568DD4085600A4D6D68E9
:1015F00005F46051C90A0B4D6B5C4568DD40C56060
:10160000054D6D6805F44041890B074D6B5CC5685D
:10161000B5FBF3F5056130BD0010024000127A0001
:1016200000093D007000002080000020704710B5C8
:1016300000F002F810BD00000CB5002001900090F1
:101640003348006840F480303149086000BF3048BA
:10165000006800F4003000900198401C0190009850
:1016600018B90198B0F5A06FF1D12948006800F4CD
:10167000003010B10120009001E00020009000989F
:10168000012843D12348006840F010002149086038
:101690000846006820F0030008600846006840F033
:1016A000020008601A4840681949486008464068C6
:1016B00048600846406840F48060486008464068DA
:1016C00020F47C1048600846406840F4E810486008
:1016D0000846006840F08070086000BF0C48006851
:1016E00000F000700028F9D00948406820F003009D
:1016F000074948600846406840F00200486000BF63
:101700000348406800F00C000828F9D10CBD000027
:10171000001002400020024011480068401C10499F
:10172000086010480068401C0E4908600E480068B8
:10173000401C0D4908600D480068401C0B490860BA
:101740000B480068401C0A4908600A480068401CB1
:101750000849086008480068401C0749086070474D
:1017600008000020100000201800002020000020A9
:1017700028000020300000203800002010B5134859
:10178000006840F0010011490860084640681049AF
:1017900008400E494860084600680E4908400B4959
:1017A00008600846006820F4802008600846406809
:1017B00020F4FE0048604FF41F008860FFF737FFF9
:1017C0004FF000600449086010BD000000100240A6
:1017D0000000FFF8FFFFF6FE08ED00E010B540F254
:1017E0002551144800F082F8A8B1124800F03AF9E7
:1017F000C4B2114801780078401C0F4A10700F489D
:10180000445410460078142802D100201146087074
:101810000B48048000BF40F22441064800F066F8FF
:1018200038B1012007490870024800880148001DAE
:10183000008810BD004400404A000020A80000209D
:10184000043801404B00002010B540F225511148EA
:1018500000F04CF870B10F4800F004F9C4B20E4823
:1018600001780078401C0C4A10700C4844540C4815
:10187000048000BF40F22441064800F037F838B138
:10188000012008490870034800880248001D0088AC
:1018900010BD0000004800404800002088000020E3
:1018A000043801404900002001F40072B2F5007FC5
:1018B00000D100BFCA430280704721B1828942F43F
:1018C0000052828104E082894DF6FF731A408281C2
:1018D000704702460020B1F5007F00D100BF138899
:1018E0000B400BB1012000E00020704770B50246AC
:1018F000002400230025002040F66A16B14200D1E2
:1019000000BFC1F3421501F01F03012606FA03F3DD
:10191000012D02D19689334006E0022D02D1168AAC
:10192000334001E0968A33400C12012606FA04F493
:101930001688344013B10CB1012000E0002070BDC6
:10194000F0B50346002400260025002040F66A1763
:10195000B94200D100BF1846C1F3421401F01F067E
:10196000012707FA06F5012C01D10C3004E0022C06
:1019700001D1103000E014301AB107682F4307601E
:1019800002E00768AF430760F0BD00002DE9F047B3
:1019900086B005460E460024A24600BFA146002799
:1019A000B08900B100BF2F462C8A4CF6FF7004406E
:1019B000F08804432C82AC894EF6F3100440B088C2
:1019C00031890843718908430443AC81AC8A4FF6DE
:1019D000FF400440B0890443AC8201A8FFF7BCFD7E
:1019E0001F48874202D1DDF810A001E0DDF80CA00D
:1019F000A88900F4004040B10AEBCA0000EB0A10CD
:101A000031684900B0FBF1F807E00AEBCA0000EBCF
:101A10000A1031688900B0FBF1F86420B8FBF0F0DF
:101A200004012009642101FB1089A88900F4004009
:101A300040B1322000EBC900B0FBF1F000F007002C
:101A4000044308E0322000EB09106421B0FBF1F000
:101A500000F00F0004432C8106B0BDE8F0870000C1
:101A60000038014001468888C0F308007047C1F380
:101A700008028280704700BFFEE700000FB4054BEC
:101A800010B503A9044A029800F0DAF810BC5DF81A
:101A900014FB0000FF2600088400002002E008C8B4
:101AA000121F08C1002AFAD170477047002001E0D8
:101AB00001C1121F002AFBD1704700002DE9FF5F12
:101AC00082B00021DDE90430020DDDF840B00343AF
:101AD00018D044F61050A2F2FF3242431514119868
:101AE00001281FD0A5EB0B00401C5FEA000A4FF055
:101AF00000064E4FDFF83891B046504615D5CAF172
:101B0000000413E0119801244AA3012801D16FEACF
:101B10000B010298119AC0E90031C0E9024206B0F7
:101B2000BDE8F09FCBF10000DFE704460021404A0A
:101B3000491842EB0450CDE9001012E0E00707D04D
:101B400032463B4640464946FEF7C7FB804689463B
:101B500032463B4610461946FEF7BFFB06460F4687
:101B60006410002CEAD1DDE90401DDE90023BAF1BB
:101B7000000F06DAFEF7B1FB42464B46FEF7ADFB1F
:101B800005E0FEF71CFC42464B46FEF718FC0446F7
:101B90000E460022284BFEF743FE03D84FF0FF30DD
:101BA000014607E00022254B20463146FEF7EEFABB
:101BB000FEF71EFE102409E0002C0ADB0A22002397
:101BC000FEF720FD039B30321A55641E50EA0102D5
:101BD000F2D1641C039AC4F111031444119A012A2E
:101BE00003D0012208430DD10AE0084304D00020AD
:101BF0004FF0110B119072E7A3EB0B056D1E0DE07A
:101C00005B4504DD4FF0000205F1010504E003DA55
:101C10004FF00002A5F10105002AECD002981199BD
:101C2000C0E90231C0E9004579E700000000144036
:101C30000000F03F300000000000F0430000E03FF3
:101C40002DE9FF4F95B09B468946064600250FE2D9
:101C5000252877D100242746F84A0121059400E081
:101C6000044316F8013F203B01FA03F01042F7D17C
:101C700030782A2811D06FF02F033078A0F130028D
:101C8000092A16D8059A44F0020402EB820203EBFB
:101C900042021044761C0590EFE759F8042B059298
:101CA000002A03DA504244F40054059044F0020440
:101CB000761C30782E2816D116F8010F44F0040453
:101CC0002A280DD06FF02F023078A0F13003092BB5
:101CD00009D807EB870302EB4303C718761CF3E729
:101CE00059F8047B761C30786C280FD006DC4C2821
:101CF00017D068280DD06A2814D104E0742810D0B9
:101D00007A280FD10DE044F400140AE044F4801462
:101D100001E044F440147278824202D104F5801448
:101D2000761C761C307866280BD013DC582877D0C8
:101D300009DC002875D04528F6D04628F4D047287D
:101D40001AD19DE118E0632835D0642879D0652840
:101D500012D195E1702873D008DC6728F1D069288A
:101D60006FD06E280DD06F2806D1B5E073282CD027
:101D7000752875D0782874D05A46179990476D1CED
:101D800075E1C4F30250022809D003280DD0D9F818
:101D9000001004280DD00D6009F1040967E1D9F89D
:101DA0000010EA17C1E90052F6E7D9F800100D80DB
:101DB000F2E70D70F0E719F8041B8DF80010002011
:101DC0008DF80100EA46012003E059F804AB4FF01A
:101DD000FF3061074FF0000102D40DE008F101016E
:101DE0008846B9420FDA8045F8DB1AF80810002956
:101DF000F4D108E008F1010188468142FADB1AF8C3
:101E000008100029F6D105985B46A0EB080721468B
:101E10003846179A00F094FA284400EB080507E0CA
:101E20004DE029E10DE01AF8010B5A461799904749
:101E3000B8F10108F7D25B4621463846179A13E1FC
:101E400042E00A220092C4F302524FF0000A022A32
:101E500008D059F804CB032A4FEAEC710AD00DE000
:101E600029E02AE009F1070121F00702F2E802C1A6
:101E7000914609E00FFA8CFC4FEAEC71042A03D179
:101E80004FFA8CFC4FEAEC71002907DA0A46002170
:101E9000DCF1000C61EB02012D2202E0220504D5E9
:101EA0002B228DF80420012203E0E20701D020223A
:101EB000F7E7904659E00A2102E010220DE01021D8
:101EC0004FF0000A00910BE010224FF0000A44F09E
:101ED00004040827009203E008224FF0000A009251
:101EE000C4F30252022A05D059F804CB0021032A78
:101EF00008D009E009F1070121F00702F2E802C168
:101F0000914605E01FFA8CFC042A01D10CF0FF0C6D
:101F10004FF00008220728D5702806D0009B83F0D8
:101F2000100353EA0A0305D00EE040228DF8042086
:101F3000012208E05CEA010206D030228DF804207C
:101F40008DF8050002229046009B83F0080353EAB7
:101F50000A030AD15CEA010201D1620705D53022E9
:101F60008DF804204FF001087F1E582804D034A0BB
:101F700003900EA802900DE036A0F9E753466046A4
:101F8000009AFEF73FFB84460398825C0298401E4D
:101F9000029002705CEA0100F0D1029806A9081ACA
:101FA00000F1200A600702D524F4803400E0012704
:101FB000574502DDA7EB0A0000E0002000EB0A0114
:101FC000009005984144401A0590E00306D45B4612
:101FD0002146179A059800F0B3F90544002706E05A
:101FE00001A85A46C05D179990476D1C7F1C474554
:101FF000F6DBE0030CD55B462146179A059800F006
:102000009FF9054404E030205A46179990476D1C0B
:102010000099481E00900029F5DC08E0029802991A
:102020005A460078491C0291179990476D1CBAF1E5
:102030000001AAF1010AF1DC65E1000009280100B4
:10204000303132333435363738396162636465662E
:1020500000000000303132333435363738394142F0
:10206000434445460000000000F058F90544761C42
:10207000307800287FF4ECAD19B02846BDE8F08F29
:10208000620700D4062709F1070222F0070CFCE8DA
:102090000223E14603F000485FEA080C02D00FF289
:1020A000702C0DE05FEA045C02D50FF2682C07E0AB
:1020B0005FEAC47C02D00FF2602C01E0AFF2700C3A
:1020C0004FF0FF3823F00043CDF850C065280CD006
:1020D00006DC452809D046281DD047283DD13DE0E3
:1020E000662818D067287ED138E00021112F01DB47
:1020F000112000E0781CCDE9000106A90EA8FFF729
:10210000DDFCDDE90F010E9A03910021009207F139
:10211000010A04914DE04FF000400097CDE9011015
:1021200006A90EA8FFF7CAFCDDE90F0203920E9B79
:1021300011990022DDF80CA00093049211B9791CCA
:1021400000EB010AB7EB0A0004D4C0F1FF3007F13D
:10215000010A0490AAEB0700019044E0012F00DA85
:1021600001270021112F01DD112000E03846CDE9C3
:10217000000106A90EA8FFF7A1FCDDE90F010E9AE8
:102180000391002104910092BA4621070CD40399CF
:10219000514500DA8A46BAF1010F05DD009AAAF12D
:1021A0000101515C302908D0B84202DA10F1040F65
:1021B00006DA0121CDE9011015E0AAF10101E9E7F4
:1021C000002805DC049901440491AAEB000102E017
:1021D000411C514500DD8A460499401A401C01907B
:1021E0004FF000400290200704D40198504501DBD5
:1021F000CDF8048000208DF84F0002980DF14F07B4
:10220000B0F1004F25D02B200E9002984FF002081D
:1022100000280CDA404202902D200E9007E00A219F
:102220000298FEF7D9F93031029007F8011DB8F194
:102230000001A8F10108F2DC02980028EFD1791E14
:102240000E980870307800F0200040F0450007F844
:10225000020D12A8C01B00F107081498007800B105
:10226000012000EB0A01019801EBE071059841445F
:10227000401A401E0590E00306D45B462146179A9B
:10228000059800F05DF805441498007818B15A4696
:10229000179990476D1CE00324D55B462146179A99
:1022A000059800F04DF805441CE00498002807DB71
:1022B000DDE90301884203DD0098405C179901E0E5
:1022C000179930205A469047049805F10105401CA3
:1022D00004900198401E019004D12E205A4617996F
:1022E00090476D1CBAF10001AAF1010ADDDC05E09E
:1022F00017F8010B5A46179990476D1CB8F1000169
:10230000A8F10108F4DC5B462146179A0598ABE674
:102310002D0000002B000000200000002DE9F041FE
:10232000044600251E461746880404D405E03946B5
:102330002020B0476D1C641EF9D52846BDE8F08109
:102340002DE9F041044600251E469046C80301D5FC
:10235000302700E02027880404D505E041463846B0
:10236000B0476D1C641EF9D52846BDE8F081000019
:1023700008B501210420FFF7DFF80020009040207D
:10238000ADF8000003208DF8020010208DF8030046
:1023900069460448FEF72AFF40210248FEF7C3FFC2
:1023A00008BD0000000801402DE9F14F8AB09748B0
:1023B0000068FEF773F8824600224FF08043FDF775
:1023C000FEFF0022924BCDE90801FDF780FF044695
:1023D0000D4690490968B1F91000FEF75FF8824692
:1023E0008B4622462B4620462946FDF776FF52466D
:1023F0005B46CDE90601FDF770FF0022864BCDE973
:102400000801FDF7DCFF8046894682490968B1F979
:102410000E00FEF743F822462B46CDE90601FDF7F4
:102420005CFF824600224FF08043FDF756FF424694
:102430004B46CDE90801FDF7A9FE8046894675495E
:102440000968B1F90C00FEF729F80022734BCDE9B9
:102450000601FDF742FF0022714BCDE9080140461D
:102460004946FDF7ACFF8246DDE90823FDF78EFE05
:102470008046894667490968B1F90800FEF70EF8F9
:10248000824622462B46FDF728FFCDE90601614929
:102490000968B1F90A00FEF701F8824622462B4688
:1024A000FDF71BFF22462B46CDE90001FDF715FF86
:1024B00000225C4BCDE90201FDF781FFCDE904016B
:1024C000DDE90623FDF762FE0022564BCDE9080147
:1024D000FDF775FF04460D464E490968C888FDF7AB
:1024E000EEFF00224C4BCDE9080120462946FDF7BE
:1024F00066FF824600224C4BFDF748FECDE90601FF
:10250000DDE90823FDF7E9FE04460D4600221346E7
:1025100020462946FEF72CF804D1002001460BB0D6
:10252000BDE8F08F0A98FDF7B9FF824600223F4BC5
:10253000FDF7D0FE06460F4600223D4B4046494679
:10254000FDF73DFF32463B46CDE90601FDF7C2FEF1
:102550000022384BCDE90801FDF7BFFE8246224636
:102560002B46FDF72CFF06460F462A490968B1F9AC
:102570001600FDF793FF32463B46CDE90601FDF715
:10258000ACFE32463B46CDE90801FDF7A6FE824689
:102590000022294BFDF713FF04460D461D4909682B
:1025A000B1F91400FDF77AFF32463B46CDE9080148
:1025B000FDF793FE82460022174BFDF700FF804691
:1025C000894614490968B1F91200FDF767FF824690
:1025D0008B4642464B4620462946FDF7D7FD5246DC
:1025E0005B46CDE90401FDF7D1FD0022134BCDE997
:1025F0000601FDF7E4FE32463B46CDE90801FDF752
:10260000C5FD06460F463046394688E76C00002077
:102610000040EF40680000200000E0400000F04073
:1026200000001040000020410000F03F0000304159
:102630000000B040006AB8400000E04100003040B7
:1026400000BF00BF00BF00BF00BF00BF00BF00BF92
:1026500000BF00BF00BF00BF00BF00BF00BF00BF82
:1026600000BF00BF00BF00BF00BF00BF00BF00BF72
:1026700000BF00BF00BF00BF00BF00BF00BF00BF62
:1026800000BF00BF00BF00BF00BF00BF00BF00BF52
:1026900000BF00BF00BF00BF00BF00BF00BF00BF42
:1026A00000BF00BF00BF00BF00BF00BF00BF00BF32
:1026B00000BF00BF00BF00BF00BF00BF00BF00BF22
:1026C00000BF00BF00BF00BF00BF00BF00BF00BF12
:1026D000704700B54FF47A714843002102E0FFF7DC
:1026E000AFFF491C8142FAD300BD00B5002103E0D1
:1026F000FFF7A6FF4A1C91B28142F9DB00BD70B51D
:1027000004460D46E0B200F08BFA204670BD000092
:102710001FB501210C20FEF70FFF002003900120C0
:10272000ADF80C0004208DF80F0003A91B48FEF73C
:102730005DFD4FF48070ADF80C0004208DF80F00A3
:1027400003A91748FEF752FD01210846FEF7F4FEE3
:1027500000210846FEF72AFD00200190029001208A
:10276000019000208DF8080010208DF8090001204C
:102770008DF80A0001A8FEF7CFFC0020009006208B
:102780008DF8000000208DF8010001208DF8020076
:102790008DF803006846FEF785FE1FBD0008014066
:1027A0000010014010B5002401211848FEF7A9FDD2
:1027B000012810D10A20FFF78CFF01211348FEF7F2
:1027C000A0FD012807D100E0012401210F48FEF7F8
:1027D00098FD0128F8D04FF480710D48FEF791FD67
:1027E00088B90A20FFF775FF4FF480710848FEF79B
:1027F00088FD40B900E002244FF480710448FEF7E0
:1028000080FD0028F7D0204610BD000000080140E0
:10281000000C014008B501211020FEF78DFE0020BC
:1028200000900720ADF8000003208DF80200102072
:102830008DF8030069460448FEF7D8FC07210248DA
:10284000FEF773FD08BD00000010014070B504469E
:102850000D4629462046FEF75DFD012804D1294694
:102860002046FEF760FD03E029462046FEF75DFDA9
:1028700070BD000008B501210420FEF75DFE0121B6
:102880000820FEF759FE002000904FF41060ADF8CC
:10289000000003208DF8020010208DF80300694627
:1028A0000948FEF7A3FC4FF48050ADF80000042067
:1028B0008DF8030069460448FEF798FC00F008F91B
:1028C000FEF78AFD08BD00000008014070B505460E
:1028D0000E46002404E0285D00F0E6F8601CC4B257
:1028E000B442F8DB70BD000002200246584B196864
:1028F0004FF6FF031940574B0B4343EA0221544B59
:10290000196000BF5449481EB0F1807F00D31CE01D
:10291000481E4FF0E022506150170F22002804DBC0
:1029200013071C0E4D4B1C5407E013071D0E484B9C
:102930000C3300F00F04241F1D5500BF00204FF082
:10294000E02290610720106100BFFEF7D1FAFFF787
:1029500061FFFFF7DDFEFFF70BFD00F019F9FEF751
:1029600039F900F0B5F8FFF785FF70E03C480068E2
:102970003B494968884209D901213A48FFF766FF77
:1029800039A0FFF77BF80020354908603A48006815
:1029900039494968884218D9FFF704FF3749087058
:1029A00008460078012802D002280AD104E001215B
:1029B0002C48FFF74BFF04E002212A48FFF746FFAF
:1029C00000BF00BF00202C4908602D4800682C493A
:1029D0004968884204D9FEF739F90020284908607F
:1029E0002848006827494968884204D9FDF742FF12
:1029F0000020244908602448006823494968884227
:102A000025D922A0FFF73AF802202349087023496C
:102A10004869FDF76DFD2049487020490869FDF7B8
:102A200067FD1D49887000221D4B1E4903C9FDF733
:102A3000C6FC0446FDF770FD1749C87002200871F6
:102A400005211548FEF77AFC00200F4908608DE744
:102A50000CED00E00000FA054019010000E400E080
:102A600008000020001001406C6564D2D1BFAAC6E6
:102A7000F4210D0A000000001000002000000020DA
:102A8000380000202800002020000020D2D1B7A26A
:102A9000CBCD210D0A00000001000020C80000205D
:102AA00000408F405800002010B5044600BF402170
:102AB0000648FEF70EFF0128F9D121460348FEF72C
:102AC000D6FF40210148FEF7EFFE10BD0044004054
:102AD00000B587B001210420FEF72EFD00200690EE
:102AE0000420ADF8180003208DF81A0018208DF886
:102AF0001B0006A92448FEF779FB0820ADF8180052
:102B000004208DF81B0006A91F48FEF76FFB01216A
:102B10004804FEF701FD0020029003900490059008
:102B20004FF4165002900020ADF80C00ADF80E00E6
:102B3000ADF81000ADF814000C20ADF8120002A999
:102B40001248FEF723FF012240F225510F48FEF7FD
:102B5000F7FE012240F224410C48FEF7F1FE00206E
:102B6000019026208DF8040001208DF805008DF8D5
:102B700006008DF8070001A8FEF794FC0121034828
:102B8000FEF79BFE07B000BD000801400044004076
:102B900000B585B001210420FEF7CEFC0020049092
:102BA0004FF40070ADF8100003208DF812001820CB
:102BB0008DF8130004A91848FEF718FB4FF4806045
:102BC000ADF8100004208DF8130004A91248FEF798
:102BD0000DFB01218803FEF7AFFC0020009001905F
:102BE000029003904FF4E13000900020ADF8040013
:102BF000ADF80600ADF80800ADF80C000C20ADF8FB
:102C00000A0069460548FEF7C1FE01210348FEF7A8
:102C100054FE05B000BD000000080140003801402E
:102C200010B5044600BF40210448FEF752FE0128BB
:102C3000F9D121460148FEF71AFF10BD00380140C6
:102C400000001700642C000800000020880000002D
:102C50009C1A0008EC2C000888000020700400007A
:102C6000AC1A000800000000000000000000000096
:102C7000E803000000000000E8030000000000007E
:102C8000E803000000000000E8030000000000006E
:102C9000E803000000000000E8030000000000005E
:102CA000E803000000000000000000000000000039
:102CB00000AC330000000000000000000000000035
:102CC000000000000000000000000000E000002004
:102CD00000000000000000000102030401020304E0
:0C2CE000060708090204060800000000B6
:0400000508000131BD
:00000001FF
